{
  "contractName": "CreateToken",
  "abi": [
    {
      "inputs": [],
      "payable": false,
      "stateMutability": "nonpayable",
      "type": "constructor"
    },
    {
      "anonymous": false,
      "inputs": [
        {
          "indexed": true,
          "internalType": "address",
          "name": "_owner",
          "type": "address"
        },
        {
          "indexed": true,
          "internalType": "address",
          "name": "_approved",
          "type": "address"
        },
        {
          "indexed": true,
          "internalType": "uint256",
          "name": "_tokenId",
          "type": "uint256"
        }
      ],
      "name": "Approval",
      "type": "event"
    },
    {
      "anonymous": false,
      "inputs": [
        {
          "indexed": true,
          "internalType": "address",
          "name": "_owner",
          "type": "address"
        },
        {
          "indexed": true,
          "internalType": "address",
          "name": "_operator",
          "type": "address"
        },
        {
          "indexed": false,
          "internalType": "bool",
          "name": "_approved",
          "type": "bool"
        }
      ],
      "name": "ApprovalForAll",
      "type": "event"
    },
    {
      "anonymous": false,
      "inputs": [
        {
          "indexed": true,
          "internalType": "address",
          "name": "_from",
          "type": "address"
        },
        {
          "indexed": true,
          "internalType": "address",
          "name": "_to",
          "type": "address"
        },
        {
          "indexed": true,
          "internalType": "uint256",
          "name": "_tokenId",
          "type": "uint256"
        }
      ],
      "name": "Transfer",
      "type": "event"
    },
    {
      "payable": true,
      "stateMutability": "payable",
      "type": "fallback"
    },
    {
      "constant": true,
      "inputs": [
        {
          "internalType": "uint256",
          "name": "",
          "type": "uint256"
        }
      ],
      "name": "allTokens",
      "outputs": [
        {
          "internalType": "string",
          "name": "ipfsHash",
          "type": "string"
        }
      ],
      "payable": false,
      "stateMutability": "view",
      "type": "function"
    },
    {
      "constant": true,
      "inputs": [
        {
          "internalType": "uint256",
          "name": "",
          "type": "uint256"
        }
      ],
      "name": "allValidTokenIds",
      "outputs": [
        {
          "internalType": "uint256",
          "name": "",
          "type": "uint256"
        }
      ],
      "payable": false,
      "stateMutability": "view",
      "type": "function"
    },
    {
      "constant": true,
      "inputs": [],
      "name": "owner",
      "outputs": [
        {
          "internalType": "address payable",
          "name": "",
          "type": "address"
        }
      ],
      "payable": false,
      "stateMutability": "view",
      "type": "function"
    },
    {
      "constant": true,
      "inputs": [
        {
          "internalType": "bytes4",
          "name": "interfaceID",
          "type": "bytes4"
        }
      ],
      "name": "supportsInterface",
      "outputs": [
        {
          "internalType": "bool",
          "name": "",
          "type": "bool"
        }
      ],
      "payable": false,
      "stateMutability": "view",
      "type": "function"
    },
    {
      "constant": true,
      "inputs": [
        {
          "internalType": "address",
          "name": "_owner",
          "type": "address"
        }
      ],
      "name": "balanceOf",
      "outputs": [
        {
          "internalType": "uint256",
          "name": "",
          "type": "uint256"
        }
      ],
      "payable": false,
      "stateMutability": "view",
      "type": "function"
    },
    {
      "constant": true,
      "inputs": [
        {
          "internalType": "uint256",
          "name": "_tokenId",
          "type": "uint256"
        }
      ],
      "name": "ownerOf",
      "outputs": [
        {
          "internalType": "address",
          "name": "",
          "type": "address"
        }
      ],
      "payable": false,
      "stateMutability": "view",
      "type": "function"
    },
    {
      "constant": false,
      "inputs": [
        {
          "internalType": "address",
          "name": "_from",
          "type": "address"
        },
        {
          "internalType": "address",
          "name": "_to",
          "type": "address"
        },
        {
          "internalType": "uint256",
          "name": "_tokenId",
          "type": "uint256"
        }
      ],
      "name": "transferFrom",
      "outputs": [],
      "payable": true,
      "stateMutability": "payable",
      "type": "function"
    },
    {
      "constant": false,
      "inputs": [
        {
          "internalType": "address",
          "name": "_from",
          "type": "address"
        },
        {
          "internalType": "address",
          "name": "_to",
          "type": "address"
        },
        {
          "internalType": "uint256",
          "name": "_tokenId",
          "type": "uint256"
        }
      ],
      "name": "safeTransferFrom",
      "outputs": [],
      "payable": true,
      "stateMutability": "payable",
      "type": "function"
    },
    {
      "constant": false,
      "inputs": [
        {
          "internalType": "address",
          "name": "_from",
          "type": "address"
        },
        {
          "internalType": "address",
          "name": "_to",
          "type": "address"
        },
        {
          "internalType": "uint256",
          "name": "_tokenId",
          "type": "uint256"
        },
        {
          "internalType": "bytes",
          "name": "data",
          "type": "bytes"
        }
      ],
      "name": "safeTransferFrom",
      "outputs": [],
      "payable": true,
      "stateMutability": "payable",
      "type": "function"
    },
    {
      "constant": false,
      "inputs": [
        {
          "internalType": "address",
          "name": "_approved",
          "type": "address"
        },
        {
          "internalType": "uint256",
          "name": "_tokenId",
          "type": "uint256"
        }
      ],
      "name": "approve",
      "outputs": [],
      "payable": true,
      "stateMutability": "payable",
      "type": "function"
    },
    {
      "constant": false,
      "inputs": [
        {
          "internalType": "address",
          "name": "_operator",
          "type": "address"
        },
        {
          "internalType": "bool",
          "name": "_approved",
          "type": "bool"
        }
      ],
      "name": "setApprovalForAll",
      "outputs": [],
      "payable": false,
      "stateMutability": "nonpayable",
      "type": "function"
    },
    {
      "constant": true,
      "inputs": [
        {
          "internalType": "uint256",
          "name": "_tokenId",
          "type": "uint256"
        }
      ],
      "name": "getApproved",
      "outputs": [
        {
          "internalType": "address",
          "name": "",
          "type": "address"
        }
      ],
      "payable": false,
      "stateMutability": "view",
      "type": "function"
    },
    {
      "constant": true,
      "inputs": [
        {
          "internalType": "address",
          "name": "_owner",
          "type": "address"
        },
        {
          "internalType": "address",
          "name": "_operator",
          "type": "address"
        }
      ],
      "name": "isApprovedForAll",
      "outputs": [
        {
          "internalType": "bool",
          "name": "",
          "type": "bool"
        }
      ],
      "payable": false,
      "stateMutability": "view",
      "type": "function"
    },
    {
      "constant": false,
      "inputs": [
        {
          "internalType": "address",
          "name": "_owner",
          "type": "address"
        },
        {
          "internalType": "string",
          "name": "ipfsHash",
          "type": "string"
        }
      ],
      "name": "mint",
      "outputs": [],
      "payable": true,
      "stateMutability": "payable",
      "type": "function"
    },
    {
      "constant": false,
      "inputs": [
        {
          "internalType": "uint256",
          "name": "_tokenId",
          "type": "uint256"
        }
      ],
      "name": "burn",
      "outputs": [],
      "payable": false,
      "stateMutability": "nonpayable",
      "type": "function"
    },
    {
      "constant": true,
      "inputs": [],
      "name": "baseTokenURI",
      "outputs": [
        {
          "internalType": "string",
          "name": "",
          "type": "string"
        }
      ],
      "payable": false,
      "stateMutability": "pure",
      "type": "function"
    },
    {
      "constant": true,
      "inputs": [],
      "name": "totalSupply",
      "outputs": [
        {
          "internalType": "uint256",
          "name": "",
          "type": "uint256"
        }
      ],
      "payable": false,
      "stateMutability": "view",
      "type": "function"
    },
    {
      "constant": true,
      "inputs": [
        {
          "internalType": "uint256",
          "name": "index",
          "type": "uint256"
        }
      ],
      "name": "tokenByIndex",
      "outputs": [
        {
          "internalType": "uint256",
          "name": "",
          "type": "uint256"
        }
      ],
      "payable": false,
      "stateMutability": "view",
      "type": "function"
    },
    {
      "constant": true,
      "inputs": [],
      "name": "name",
      "outputs": [
        {
          "internalType": "string",
          "name": "",
          "type": "string"
        }
      ],
      "payable": false,
      "stateMutability": "pure",
      "type": "function"
    },
    {
      "constant": true,
      "inputs": [],
      "name": "symbol",
      "outputs": [
        {
          "internalType": "string",
          "name": "",
          "type": "string"
        }
      ],
      "payable": false,
      "stateMutability": "pure",
      "type": "function"
    },
    {
      "constant": true,
      "inputs": [
        {
          "internalType": "uint256",
          "name": "_tokenId",
          "type": "uint256"
        }
      ],
      "name": "tokenURI",
      "outputs": [
        {
          "internalType": "string",
          "name": "",
          "type": "string"
        }
      ],
      "payable": false,
      "stateMutability": "view",
      "type": "function"
    },
    {
      "constant": false,
      "inputs": [],
      "name": "kill",
      "outputs": [],
      "payable": false,
      "stateMutability": "nonpayable",
      "type": "function"
    }
  ],
  "bytecode": "0x608060405234801561001057600080fd5b50336000806101000a81548173ffffffffffffffffffffffffffffffffffffffff021916908373ffffffffffffffffffffffffffffffffffffffff16021790555060018060006301ffc9a760e01b7bffffffffffffffffffffffffffffffffffffffffffffffffffffffff1916815260200190815260200160002060006101000a81548160ff02191690831515021790555060018060006380ac58cd60e01b7bffffffffffffffffffffffffffffffffffffffffffffffffffffffff1916815260200190815260200160002060006101000a81548160ff0219169083151502179055506001806000635b5e139f60e01b7bffffffffffffffffffffffffffffffffffffffffffffffffffffffff1916815260200190815260200160002060006101000a81548160ff021916908315150217905550612951806101536000396000f3fe6080604052600436106101355760003560e01c80636352211e116100ab578063a22cb4651161006f578063a22cb46514610774578063b88d4fde146107d1578063c87b56dd146108d6578063d0def5211461098a578063d547cfb714610a23578063e985e9c514610ab357610135565b80636352211e1461055e578063700319c5146105d957806370a08231146106285780638da5cb5b1461068d57806395d89b41146106e457610135565b806323b872dd116100fd57806323b872dd1461032d57806341c0e1b51461039b57806342842e0e146103b257806342966c68146104205780634f6ccce71461045b578063634282af146104aa57610135565b806301ffc9a71461013757806306fdde03146101a9578063081812fc14610239578063095ea7b3146102b457806318160ddd14610302575b005b34801561014357600080fd5b5061018f6004803603602081101561015a57600080fd5b8101908080357bffffffffffffffffffffffffffffffffffffffffffffffffffffffff19169060200190929190505050610b3c565b604051808215151515815260200191505060405180910390f35b3480156101b557600080fd5b506101be610ba4565b6040518080602001828103825283818151815260200191508051906020019080838360005b838110156101fe5780820151818401526020810190506101e3565b50505050905090810190601f16801561022b5780820380516001836020036101000a031916815260200191505b509250505060405180910390f35b34801561024557600080fd5b506102726004803603602081101561025c57600080fd5b8101908080359060200190929190505050610be1565b604051808273ffffffffffffffffffffffffffffffffffffffff1673ffffffffffffffffffffffffffffffffffffffff16815260200191505060405180910390f35b610300600480360360408110156102ca57600080fd5b81019080803573ffffffffffffffffffffffffffffffffffffffff16906020019092919080359060200190929190505050610c1e565b005b34801561030e57600080fd5b50610317610e15565b6040518082815260200191505060405180910390f35b6103996004803603606081101561034357600080fd5b81019080803573ffffffffffffffffffffffffffffffffffffffff169060200190929190803573ffffffffffffffffffffffffffffffffffffffff16906020019092919080359060200190929190505050610e22565b005b3480156103a757600080fd5b506103b061135d565b005b61041e600480360360608110156103c857600080fd5b81019080803573ffffffffffffffffffffffffffffffffffffffff169060200190929190803573ffffffffffffffffffffffffffffffffffffffff1690602001909291908035906020019092919050505061143c565b005b34801561042c57600080fd5b506104596004803603602081101561044357600080fd5b810190808035906020019092919050505061145c565b005b34801561046757600080fd5b506104946004803603602081101561047e57600080fd5b810190808035906020019092919050505061172c565b6040518082815260200191505060405180910390f35b3480156104b657600080fd5b506104e3600480360360208110156104cd57600080fd5b8101908080359060200190929190505050611760565b6040518080602001828103825283818151815260200191508051906020019080838360005b83811015610523578082015181840152602081019050610508565b50505050905090810190601f1680156105505780820380516001836020036101000a031916815260200191505b509250505060405180910390f35b34801561056a57600080fd5b506105976004803603602081101561058157600080fd5b810190808035906020019092919050505061181f565b604051808273ffffffffffffffffffffffffffffffffffffffff1673ffffffffffffffffffffffffffffffffffffffff16815260200191505060405180910390f35b3480156105e557600080fd5b50610612600480360360208110156105fc57600080fd5b8101908080359060200190929190505050611904565b6040518082815260200191505060405180910390f35b34801561063457600080fd5b506106776004803603602081101561064b57600080fd5b81019080803573ffffffffffffffffffffffffffffffffffffffff169060200190929190505050611925565b6040518082815260200191505060405180910390f35b34801561069957600080fd5b506106a26119a7565b604051808273ffffffffffffffffffffffffffffffffffffffff1673ffffffffffffffffffffffffffffffffffffffff16815260200191505060405180910390f35b3480156106f057600080fd5b506106f96119cc565b6040518080602001828103825283818151815260200191508051906020019080838360005b8381101561073957808201518184015260208101905061071e565b50505050905090810190601f1680156107665780820380516001836020036101000a031916815260200191505b509250505060405180910390f35b34801561078057600080fd5b506107cf6004803603604081101561079757600080fd5b81019080803573ffffffffffffffffffffffffffffffffffffffff169060200190929190803515159060200190929190505050611a09565b005b6108d4600480360360808110156107e757600080fd5b81019080803573ffffffffffffffffffffffffffffffffffffffff169060200190929190803573ffffffffffffffffffffffffffffffffffffffff169060200190929190803590602001909291908035906020019064010000000081111561084e57600080fd5b82018360208201111561086057600080fd5b8035906020019184600183028401116401000000008311171561088257600080fd5b91908080601f016020809104026020016040519081016040528093929190818152602001838380828437600081840152601f19601f820116905080830192505050505050509192919290505050611b0a565b005b3480156108e257600080fd5b5061090f600480360360208110156108f957600080fd5b8101908080359060200190929190505050611d56565b6040518080602001828103825283818151815260200191508051906020019080838360005b8381101561094f578082015181840152602081019050610934565b50505050905090810190601f16801561097c5780820380516001836020036101000a031916815260200191505b509250505060405180910390f35b610a21600480360360408110156109a057600080fd5b81019080803573ffffffffffffffffffffffffffffffffffffffff169060200190929190803590602001906401000000008111156109dd57600080fd5b8201836020820111156109ef57600080fd5b80359060200191846001830284011164010000000083111715610a1157600080fd5b9091929391929390505050611e9b565b005b348015610a2f57600080fd5b50610a38612158565b6040518080602001828103825283818151815260200191508051906020019080838360005b83811015610a78578082015181840152602081019050610a5d565b50505050905090810190601f168015610aa55780820380516001836020036101000a031916815260200191505b509250505060405180910390f35b348015610abf57600080fd5b50610b2260048036036040811015610ad657600080fd5b81019080803573ffffffffffffffffffffffffffffffffffffffff169060200190929190803573ffffffffffffffffffffffffffffffffffffffff169060200190929190505050612195565b604051808215151515815260200191505060405180910390f35b600060016000837bffffffffffffffffffffffffffffffffffffffffffffffffffffffff19167bffffffffffffffffffffffffffffffffffffffffffffffffffffffff1916815260200190815260200160002060009054906101000a900460ff169050919050565b60606040518060400160405280600a81526020017f4950465320544f4b454e00000000000000000000000000000000000000000000815250905090565b60006004600083815260200190815260200160002060009054906101000a900473ffffffffffffffffffffffffffffffffffffffff169050919050565b6000610c298261181f565b90506000600560008373ffffffffffffffffffffffffffffffffffffffff1673ffffffffffffffffffffffffffffffffffffffff16815260200190815260200160002060003373ffffffffffffffffffffffffffffffffffffffff1673ffffffffffffffffffffffffffffffffffffffff16815260200190815260200160002060009054906101000a900460ff1690503373ffffffffffffffffffffffffffffffffffffffff168273ffffffffffffffffffffffffffffffffffffffff161480610cf05750805b610d62576040517f08c379a00000000000000000000000000000000000000000000000000000000081526004018080602001828103825260158152602001807f4e6f7420617070726f766564206279206f776e6572000000000000000000000081525060200191505060405180910390fd5b836004600085815260200190815260200160002060006101000a81548173ffffffffffffffffffffffffffffffffffffffff021916908373ffffffffffffffffffffffffffffffffffffffff160217905550828473ffffffffffffffffffffffffffffffffffffffff168373ffffffffffffffffffffffffffffffffffffffff167f8c5be1e5ebec7d5bd14f71427d1e84f3dd0314c0f7b2291e5b200ac8c7c3b92560405160405180910390a450505050565b6000600880549050905090565b6000610e2d8261181f565b90508373ffffffffffffffffffffffffffffffffffffffff168173ffffffffffffffffffffffffffffffffffffffff1614610eb3576040517f08c379a00000000000000000000000000000000000000000000000000000000081526004018080602001828103825260238152602001806128866023913960400191505060405180910390fd5b600073ffffffffffffffffffffffffffffffffffffffff168373ffffffffffffffffffffffffffffffffffffffff161415610f56576040517f08c379a00000000000000000000000000000000000000000000000000000000081526004018080602001828103825260188152602001807f5472616e73666572205f746f206164647265737320307830000000000000000081525060200191505060405180910390fd5b60006004600084815260200190815260200160002060009054906101000a900473ffffffffffffffffffffffffffffffffffffffff1690506000600560008473ffffffffffffffffffffffffffffffffffffffff1673ffffffffffffffffffffffffffffffffffffffff16815260200190815260200160002060003373ffffffffffffffffffffffffffffffffffffffff1673ffffffffffffffffffffffffffffffffffffffff16815260200190815260200160002060009054906101000a900460ff1690503373ffffffffffffffffffffffffffffffffffffffff168373ffffffffffffffffffffffffffffffffffffffff16148061108157503373ffffffffffffffffffffffffffffffffffffffff168273ffffffffffffffffffffffffffffffffffffffff16145b806110895750805b6110de576040517f08c379a000000000000000000000000000000000000000000000000000000000815260040180806020018281038252602b8152602001806128a9602b913960400191505060405180910390fd5b846002600086815260200190815260200160002060006101000a81548173ffffffffffffffffffffffffffffffffffffffff021916908373ffffffffffffffffffffffffffffffffffffffff1602179055506111836001600360008973ffffffffffffffffffffffffffffffffffffffff1673ffffffffffffffffffffffffffffffffffffffff1681526020019081526020016000205461222990919063ffffffff16565b600360008873ffffffffffffffffffffffffffffffffffffffff1673ffffffffffffffffffffffffffffffffffffffff168152602001908152602001600020819055506112196001600360008873ffffffffffffffffffffffffffffffffffffffff1673ffffffffffffffffffffffffffffffffffffffff1681526020019081526020016000205461224990919063ffffffff16565b600360008773ffffffffffffffffffffffffffffffffffffffff1673ffffffffffffffffffffffffffffffffffffffff16815260200190815260200160002081905550600073ffffffffffffffffffffffffffffffffffffffff166004600086815260200190815260200160002060009054906101000a900473ffffffffffffffffffffffffffffffffffffffff1673ffffffffffffffffffffffffffffffffffffffff16146112fa576004600085815260200190815260200160002060006101000a81549073ffffffffffffffffffffffffffffffffffffffff02191690555b838573ffffffffffffffffffffffffffffffffffffffff168773ffffffffffffffffffffffffffffffffffffffff167fddf252ad1be2c89b69c2b068fc378daa952ba7f163c4a11628f55a4df523b3ef60405160405180910390a4505050505050565b6000809054906101000a900473ffffffffffffffffffffffffffffffffffffffff1673ffffffffffffffffffffffffffffffffffffffff163373ffffffffffffffffffffffffffffffffffffffff1614611402576040517f08c379a00000000000000000000000000000000000000000000000000000000081526004018080602001828103825260228152602001806128356022913960400191505060405180910390fd5b6000809054906101000a900473ffffffffffffffffffffffffffffffffffffffff1673ffffffffffffffffffffffffffffffffffffffff16ff5b61145783838360405180602001604052806000815250611b0a565b505050565b60006114678261181f565b90503373ffffffffffffffffffffffffffffffffffffffff168173ffffffffffffffffffffffffffffffffffffffff16146114ed576040517f08c379a00000000000000000000000000000000000000000000000000000000081526004018080602001828103825260288152602001806128f56028913960400191505060405180910390fd5b600073ffffffffffffffffffffffffffffffffffffffff166004600084815260200190815260200160002060009054906101000a900473ffffffffffffffffffffffffffffffffffffffff1673ffffffffffffffffffffffffffffffffffffffff161461158b576004600083815260200190815260200160002060006101000a81549073ffffffffffffffffffffffffffffffffffffffff02191690555b60006002600084815260200190815260200160002060006101000a81548173ffffffffffffffffffffffffffffffffffffffff021916908373ffffffffffffffffffffffffffffffffffffffff1602179055506116316001600360003373ffffffffffffffffffffffffffffffffffffffff1673ffffffffffffffffffffffffffffffffffffffff1681526020019081526020016000205461222990919063ffffffff16565b600360003373ffffffffffffffffffffffffffffffffffffffff1673ffffffffffffffffffffffffffffffffffffffff1681526020019081526020016000208190555061167d82612268565b600060066000848152602001908152602001600020805460018160011615610100020316600290049050146116cc576006600083815260200190815260200160002060006116cb9190612688565b5b81600073ffffffffffffffffffffffffffffffffffffffff168273ffffffffffffffffffffffffffffffffffffffff167fddf252ad1be2c89b69c2b068fc378daa952ba7f163c4a11628f55a4df523b3ef60405160405180910390a45050565b6000611736610e15565b821061174157600080fd5b6008828154811061174e57fe5b90600052602060002001549050919050565b6007818154811061176d57fe5b90600052602060002001600091509050806000018054600181600116156101000203166002900480601f0160208091040260200160405190810160405280929190818152602001828054600181600116156101000203166002900480156118155780601f106117ea57610100808354040283529160200191611815565b820191906000526020600020905b8154815290600101906020018083116117f857829003601f168201915b5050505050905081565b6000806002600084815260200190815260200160002060009054906101000a900473ffffffffffffffffffffffffffffffffffffffff169050600073ffffffffffffffffffffffffffffffffffffffff168173ffffffffffffffffffffffffffffffffffffffff1614156118fb576040517f08c379a00000000000000000000000000000000000000000000000000000000081526004018080602001828103825260108152602001807f546f6b656e20697320696e76616c69640000000000000000000000000000000081525060200191505060405180910390fd5b80915050919050565b6008818154811061191157fe5b906000526020600020016000915090505481565b60008073ffffffffffffffffffffffffffffffffffffffff168273ffffffffffffffffffffffffffffffffffffffff16141561196057600080fd5b600360008373ffffffffffffffffffffffffffffffffffffffff1673ffffffffffffffffffffffffffffffffffffffff168152602001908152602001600020549050919050565b6000809054906101000a900473ffffffffffffffffffffffffffffffffffffffff1681565b60606040518060400160405280600381526020017f4950540000000000000000000000000000000000000000000000000000000000815250905090565b80600560003373ffffffffffffffffffffffffffffffffffffffff1673ffffffffffffffffffffffffffffffffffffffff16815260200190815260200160002060008473ffffffffffffffffffffffffffffffffffffffff1673ffffffffffffffffffffffffffffffffffffffff16815260200190815260200160002060006101000a81548160ff0219169083151502179055508173ffffffffffffffffffffffffffffffffffffffff163373ffffffffffffffffffffffffffffffffffffffff167f17307eab39ab6107e8899845ad3d59bd9653f200f220920489ca2b5937696c3183604051808215151515815260200191505060405180910390a35050565b611b15848484610e22565b611b348373ffffffffffffffffffffffffffffffffffffffff16612333565b15611d505760008373ffffffffffffffffffffffffffffffffffffffff1663150b7a02338786866040518563ffffffff1660e01b8152600401808573ffffffffffffffffffffffffffffffffffffffff1673ffffffffffffffffffffffffffffffffffffffff1681526020018473ffffffffffffffffffffffffffffffffffffffff1673ffffffffffffffffffffffffffffffffffffffff16815260200183815260200180602001828103825283818151815260200191508051906020019080838360005b83811015611c14578082015181840152602081019050611bf9565b50505050905090810190601f168015611c415780820380516001836020036101000a031916815260200191505b5095505050505050602060405180830381600087803b158015611c6357600080fd5b505af1158015611c77573d6000803e3d6000fd5b505050506040513d6020811015611c8d57600080fd5b810190808051906020019092919050505090506040518080612857602f9139602f01905060405180910390207bffffffffffffffffffffffffffffffffffffffffffffffffffffffff1916817bffffffffffffffffffffffffffffffffffffffffffffffffffffffff191614611d4e576040517f08c379a00000000000000000000000000000000000000000000000000000000081526004018080602001828103825260218152602001806128d46021913960400191505060405180910390fd5b505b50505050565b606081611d75600960008581526020019081526020016000205461172c565b14611de8576040517f08c379a00000000000000000000000000000000000000000000000000000000081526004018080602001828103825260148152602001807f54686520746f6b656e20697320696e76616c696400000000000000000000000081525060200191505060405180910390fd5b600660008381526020019081526020016000208054600181600116156101000203166002900480601f016020809104026020016040519081016040528092919081815260200182805460018160011615610100020316600290048015611e8f5780601f10611e6457610100808354040283529160200191611e8f565b820191906000526020600020905b815481529060010190602001808311611e7257829003601f168201915b50505050509050919050565b611ea36126d0565b604051806020016040528084848080601f016020809104026020016040519081016040528093929190818152602001838380828437600081840152601f19601f820116905080830192505050505050508152509050600060016007839080600181540180825580915050906001820390600052602060002001600090919290919091506000820151816000019080519060200190611f429291906126e3565b505050039050846002600083815260200190815260200160002060006101000a81548173ffffffffffffffffffffffffffffffffffffffff021916908373ffffffffffffffffffffffffffffffffffffffff160217905550611fed6001600360008873ffffffffffffffffffffffffffffffffffffffff1673ffffffffffffffffffffffffffffffffffffffff1681526020019081526020016000205461224990919063ffffffff16565b600360008773ffffffffffffffffffffffffffffffffffffffff1673ffffffffffffffffffffffffffffffffffffffff16815260200190815260200160002081905550600880549050600960008381526020019081526020016000208190555060088190806001815401808255809150509060018203906000526020600020016000909192909190915055506120ce612084612158565b85858080601f016020809104026020016040519081016040528093929190818152602001838380828437600081840152601f19601f8201169050808301925050505050505061237e565b6006600083815260200190815260200160002090805190602001906120f4929190612763565b50808573ffffffffffffffffffffffffffffffffffffffff16600073ffffffffffffffffffffffffffffffffffffffff167fddf252ad1be2c89b69c2b068fc378daa952ba7f163c4a11628f55a4df523b3ef60405160405180910390a45050505050565b60606040518060400160405280601d81526020017f68747470733a2f2f676174657761792e697066732e696f2f697066732f000000815250905090565b6000600560008473ffffffffffffffffffffffffffffffffffffffff1673ffffffffffffffffffffffffffffffffffffffff16815260200190815260200160002060008373ffffffffffffffffffffffffffffffffffffffff1673ffffffffffffffffffffffffffffffffffffffff16815260200190815260200160002060009054906101000a900460ff16905092915050565b60008282111561223857600080fd5b600082840390508091505092915050565b60008082840190508381101561225e57600080fd5b8091505092915050565b6000612283600160088054905061222990919063ffffffff16565b90506000600960008481526020019081526020016000205490506000600883815481106122ac57fe5b9060005260206000200154905080600883815481106122c757fe5b9060005260206000200181905550816009600083815260200190815260200160002081905550612306600160088054905061222990919063ffffffff16565b60088161231391906127e3565b506000600960008681526020019081526020016000208190555050505050565b60008060007fc5d2460186f7233c927e7db2dcc703c0e500b653ca82273b7bfad8045d85a47060001b9050833f91506000801b82141580156123755750808214155b92505050919050565b60606123ba83836040518060200160405280600081525060405180602001604052806000815250604051806020016040528060008152506123c2565b905092915050565b6060808690506060869050606086905060608690506060869050606081518351855187518951010101016040519080825280601f01601f19166020018201604052801561241e5781602001600182028038833980820191505090505b5090506060819050600080905060008090505b885181101561249f5788818151811061244657fe5b602001015160f81c60f81b83838060010194508151811061246357fe5b60200101907effffffffffffffffffffffffffffffffffffffffffffffffffffffffffffff1916908160001a9053508080600101915050612431565b5060008090505b8751811015612514578781815181106124bb57fe5b602001015160f81c60f81b8383806001019450815181106124d857fe5b60200101907effffffffffffffffffffffffffffffffffffffffffffffffffffffffffffff1916908160001a90535080806001019150506124a6565b5060008090505b86518110156125895786818151811061253057fe5b602001015160f81c60f81b83838060010194508151811061254d57fe5b60200101907effffffffffffffffffffffffffffffffffffffffffffffffffffffffffffff1916908160001a905350808060010191505061251b565b5060008090505b85518110156125fe578581815181106125a557fe5b602001015160f81c60f81b8383806001019450815181106125c257fe5b60200101907effffffffffffffffffffffffffffffffffffffffffffffffffffffffffffff1916908160001a9053508080600101915050612590565b5060008090505b84518110156126735784818151811061261a57fe5b602001015160f81c60f81b83838060010194508151811061263757fe5b60200101907effffffffffffffffffffffffffffffffffffffffffffffffffffffffffffff1916908160001a9053508080600101915050612605565b50819850505050505050505095945050505050565b50805460018160011615610100020316600290046000825580601f106126ae57506126cd565b601f0160209004906000526020600020908101906126cc919061280f565b5b50565b6040518060200160405280606081525090565b828054600181600116156101000203166002900490600052602060002090601f016020900481019282601f1061272457805160ff1916838001178555612752565b82800160010185558215612752579182015b82811115612751578251825591602001919060010190612736565b5b50905061275f919061280f565b5090565b828054600181600116156101000203166002900490600052602060002090601f016020900481019282601f106127a457805160ff19168380011785556127d2565b828001600101855582156127d2579182015b828111156127d15782518255916020019190600101906127b6565b5b5090506127df919061280f565b5090565b81548183558181111561280a57818360005260206000209182019101612809919061280f565b5b505050565b61283191905b8082111561282d576000816000905550600101612815565b5090565b9056fe4f6e6c79206f776e65722063616e2063616c6c20746869732066756e6374696f6e2e6f6e455243373231526563656976656428616464726573732c616464726573732c75696e743235362c6279746573295f66726f6d206973204e4f5420746865206f776e6572206f662074686520746f6b656e6d73672e73656e64657220646f6573206e6f742068617665207472616e7366657261626c6520746f6b656e72656365697074206f6620746f6b656e206973204e4f5420636f6d706c657465646d73672e73656e646572206973204e4f5420746865206f776e6572206f662074686520746f6b656ea265627a7a72315820a5d188b071e9a4294bdab0bc36ab086ebb6020dd7ed17c952af905aa61e04c6864736f6c63430005100032",
  "source": "pragma solidity ^0.5.0;\n\nimport './ERC721.sol';\nimport './ERC165.sol';\nimport './SafeMath.sol';\nimport './Address.sol';\nimport './Strings.sol';\n\ncontract CreateToken is ERC721, ERC165 {\n    using SafeMath for uint256;\n    using Address for address;\n\n    address payable public owner;\n    mapping(bytes4 => bool) supportedInterfaces;\n\n    mapping(uint256 => address) tokenOwners;\n    mapping(address => uint256) balances;\n    mapping(uint256 => address) allowance;\n    mapping(address => mapping(address => bool)) operators;\n\n    mapping(uint256 => string) tokenURIs;\n\n    struct asset {\n        string ipfsHash;\n    }\n\n    asset[] public allTokens;\n\n    //for enumeration\n    uint256[] public allValidTokenIds; //same as allTokens but does't have invalid tokens\n    mapping(uint256 => uint256) private allValidTokenIndex;\n\n    modifier onlyOwner {\n        require(msg.sender == owner, 'Only owner can call this function.');\n        _;\n    }\n\n    constructor() public {\n        owner = msg.sender;\n        supportedInterfaces[0x01ffc9a7] = true; //ERC165\n        supportedInterfaces[0x80ac58cd] = true; //ERC721\n        supportedInterfaces[0x5b5e139f] = true; //ERC721Metadata\n    }\n\n    function supportsInterface(bytes4 interfaceID) external view returns (bool) {\n        return supportedInterfaces[interfaceID];\n    }\n\n    function balanceOf(address _owner) external view returns (uint256) {\n        require(_owner != address(0));\n        return balances[_owner];\n    }\n\n    function ownerOf(uint256 _tokenId) public view returns (address) {\n        address addr_owner = tokenOwners[_tokenId];\n        require(addr_owner != address(0), 'Token is invalid');\n        return addr_owner;\n    }\n\n    function transferFrom(\n        address _from,\n        address _to,\n        uint256 _tokenId\n    ) public payable {\n        address addr_owner = ownerOf(_tokenId);\n\n        require(addr_owner == _from, '_from is NOT the owner of the token');\n\n        require(_to != address(0), 'Transfer _to address 0x0');\n\n        address addr_allowed = allowance[_tokenId];\n        bool isOp = operators[addr_owner][msg.sender];\n\n        require(addr_owner == msg.sender || addr_allowed == msg.sender || isOp, 'msg.sender does not have transferable token');\n\n        //transfer : change the owner of the token\n        tokenOwners[_tokenId] = _to;\n        balances[_from] = balances[_from].sub(1);\n        balances[_to] = balances[_to].add(1);\n\n        //reset approved address\n        if (allowance[_tokenId] != address(0)) {\n            delete allowance[_tokenId];\n        }\n\n        emit Transfer(_from, _to, _tokenId);\n    }\n\n    function safeTransferFrom(\n        address _from,\n        address _to,\n        uint256 _tokenId,\n        bytes memory data\n    ) public payable {\n        transferFrom(_from, _to, _tokenId);\n\n        //check if _to is CA\n        if (_to.isContract()) {\n            bytes4 result = ERC721TokenReceiver(_to).onERC721Received(msg.sender, _from, _tokenId, data);\n\n            require(result == bytes4(keccak256('onERC721Received(address,address,uint256,bytes)')), 'receipt of token is NOT completed');\n        }\n    }\n\n    function safeTransferFrom(\n        address _from,\n        address _to,\n        uint256 _tokenId\n    ) public payable {\n        safeTransferFrom(_from, _to, _tokenId, '');\n    }\n\n    function approve(address _approved, uint256 _tokenId) external payable {\n        address addr_owner = ownerOf(_tokenId);\n        bool isOp = operators[addr_owner][msg.sender];\n\n        require(addr_owner == msg.sender || isOp, 'Not approved by owner');\n\n        allowance[_tokenId] = _approved;\n\n        emit Approval(addr_owner, _approved, _tokenId);\n    }\n\n    function setApprovalForAll(address _operator, bool _approved) external {\n        operators[msg.sender][_operator] = _approved;\n        emit ApprovalForAll(msg.sender, _operator, _approved);\n    }\n\n    function getApproved(uint256 _tokenId) external view returns (address) {\n        return allowance[_tokenId];\n    }\n\n    function isApprovedForAll(address _owner, address _operator) external view returns (bool) {\n        return operators[_owner][_operator];\n    }\n\n    //non-ERC721 standard\n    //\n    //\n    function() external payable {}\n\n    function mint(address _owner, string calldata ipfsHash) external payable {\n        asset memory newAsset = asset(ipfsHash);\n        uint256 tokenId = allTokens.push(newAsset) - 1;\n        //token id starts from 0, index of assets array\n        tokenOwners[tokenId] = _owner;\n        balances[_owner] = balances[_owner].add(1);\n\n        //for enumeration\n        allValidTokenIndex[tokenId] = allValidTokenIds.length;\n        //index starts from 0\n        allValidTokenIds.push(tokenId);\n\n        //Token Metadata\n        tokenURIs[tokenId] = Strings.strConcat(baseTokenURI(), ipfsHash);\n\n        emit Transfer(address(0), _owner, tokenId);\n    }\n\n    function burn(uint256 _tokenId) external {\n        address addr_owner = ownerOf(_tokenId);\n\n        require(addr_owner == msg.sender, 'msg.sender is NOT the owner of the token');\n\n        //reset approved address\n        if (allowance[_tokenId] != address(0)) {\n            delete allowance[_tokenId];\n            // tokenId => 0\n        }\n\n        //transfer : change the owner of the token, but address(0)\n        tokenOwners[_tokenId] = address(0);\n        balances[msg.sender] = balances[msg.sender].sub(1);\n\n        //for enumeration\n        removeInvalidToken(_tokenId);\n\n        //clear metadata if exists\n        if (bytes(tokenURIs[_tokenId]).length != 0) {\n            delete tokenURIs[_tokenId];\n        }\n\n        emit Transfer(addr_owner, address(0), _tokenId);\n    }\n\n    function removeInvalidToken(uint256 tokenIdToRemove) private {\n        uint256 lastIndex = allValidTokenIds.length.sub(1);\n        uint256 removeIndex = allValidTokenIndex[tokenIdToRemove];\n\n        uint256 lastTokenId = allValidTokenIds[lastIndex];\n\n        //swap\n        allValidTokenIds[removeIndex] = lastTokenId;\n        allValidTokenIndex[lastTokenId] = removeIndex;\n\n        //delete\n        //Arrays have a length member to hold their number of elements.\n        //Dynamic arrays can be resized in storage (not in memory) by changing the .length member.\n        allValidTokenIds.length = allValidTokenIds.length.sub(1);\n        //allValidTokenIndex is private so can't access invalid token by index programmatically\n        allValidTokenIndex[tokenIdToRemove] = 0;\n    }\n\n    function baseTokenURI() public pure returns (string memory) {\n        return 'https://gateway.ipfs.io/ipfs/';\n    }\n\n    //ERC721Enumerable\n    function totalSupply() public view returns (uint256) {\n        return allValidTokenIds.length;\n    }\n\n    //ERC721Enumerable\n    function tokenByIndex(uint256 index) public view returns (uint256) {\n        require(index < totalSupply());\n        return allValidTokenIds[index];\n    }\n\n    //ERC721Metadata\n    function name() external pure returns (string memory) {\n        return 'IPFS TOKEN';\n    }\n\n    //ERC721Metadata\n    function symbol() external pure returns (string memory) {\n        return 'IPT';\n    }\n\n    //ERC721Metadata\n    function tokenURI(uint256 _tokenId) external view returns (string memory) {\n        require(tokenByIndex(allValidTokenIndex[_tokenId]) == _tokenId, 'The token is invalid');\n        return tokenURIs[_tokenId];\n    }\n\n    function kill() external onlyOwner {\n        selfdestruct(owner);\n    }\n}\n\ncontract ERC721TokenReceiver {\n    function onERC721Received(\n        address _operator,\n        address _from,\n        uint256 _tokenId,\n        bytes memory _data\n    ) public returns (bytes4);\n}\n",
  "sourcePath": "/Users/kimgeonhun/Study/NFT/hippy_back/contracts/CreateToken.sol",
  "compiler": {
    "name": "solc",
    "version": "0.5.16+commit.9c3226ce.Emscripten.clang"
  },
  "schemaVersion": "3.4.0",
  "updatedAt": "2021-04-30T11:31:26.167Z",
  "networkType": "ethereum",
  "devdoc": {
    "methods": {}
  },
  "userdoc": {
    "methods": {}
  }
}